:100000000C9434000C943E000C943E000C943E0082
:100010000C943E000C943E000C943E000C943E0068
:100020000C943E000C943E000C943E000C943E0058
:100030000C943E000C943E000C943E000C943E0048
:100040000C943E000C943E000C943E000C943E0038
:100050000C943E000C943E000C943E000C943E0028
:100060000C943E000C943E0011241FBECFEFD8E04C
:10007000DEBFCDBF0E9455000C94B2000C9400006E
:1000800081E08093C5008FE98093C40088E180936C
:10009000C10086E08093C2000895E0ECF0E080812A
:1000A0008823ECF78091C6000895CF93DF93CDB7F6
:1000B000DEB7CF5FD3400FB6F894DEBF0FBECDBF23
:1000C0000E94400000EC10E00F2EF6EC6F2E712C19
:1000D000F02DCE0101967C016C01812C912C0E94A7
:1000E0004D009FEF891A990AF60181936F018A30BA
:1000F000B1F7E1E0F0E0EC0FFD1FE80DF91D108213
:100100001814190434F70F2EF0E0AF2EF0E0BF2ED4
:10011000F02D4F016701F60161916F01C5010E9449
:10012000A400FFEFAF1ABF0AC814D904A1F7F80161
:10013000808185FFFCCFF70181917F01F3018083EE
:10014000E814F904A1F7C5CF262FF999FECF1FBAFD
:1001500092BD81BD20BD0FB6F894FA9AF99A0FBEF0
:0801600001960895F894FFCF09
:00000001FF
