S0190000726563657074696F6E5F636F64655F70632E7372656316
S11300000C9434000C943E000C943E000C943E007E
S11300100C943E000C943E000C943E000C943E0064
S11300200C943E000C943E000C943E000C943E0054
S11300300C943E000C943E000C943E000C943E0044
S11300400C943E000C943E000C943E000C943E0034
S11300500C943E000C943E000C943E000C943E0024
S11300600C943E000C943E0011241FBECFEFD8E048
S1130070DEBFCDBF0E9455000C9493000C94000089
S113008081E08093C5008FE98093C40088E1809368
S1130090C10086E08093C2000895E0ECF0E0908116
S11300A095FFFDCF8093C6000895CF93DF93CDB71E
S11300B0DEB7D4500FB6F894DEBF0FBECDBF0E949A
S11300C040006E018FEFC81A8BEFD80A0F2EF0E0B4
S11300D0EF2EF0E0FF2EF02D8E010F5F1F4FC701B2
S11300E00E948B00F80181938F01FFEFEF1AFF0A42
S11300F00C151D05A1F7F60110828981882331F3BF
S11301008E010E5F1F4F0E944D00F80181918F01F7
S11301108111F9CFDBCFF999FECF92BD81BDF89A59
S10D0120992780B50895F894FFCFE5
S9030000FC
